:1000000019C033C032C034C130C02FC043C12DC06D
:100010002CC02BC02AC029C028C027C026C025C09C
:1000200024C023C022C021C020C01FC01EC01DC0CC
:100030001CC01BC011241FBECFEFCDBFDFE3DEBF4E
:100040001FE3A0E0BFE3EEEDFFE002C005900D92DC
:10005000A231B107D9F72FE3A2E1BFE301C01D929E
:10006000A634B207E1F7C4D15DC7CACFE0E0F6E03D
:1000700083E0808380858160808783858823E9F39E
:10008000E0E0F6E06089718981E0838780E090E0BC
:100090007CD39B01AC016DEC7CEC8CE894E4D4D275
:1000A00020E030E04AE754E4FED340D3CB0108958A
:1000B00080E18093A000E0E0F6E08DE1868381E1BD
:1000C00082830895E0E0F4E020E4218320E82283A5
:1000D000BC0180E090E059D320E030E040E851E4FA
:1000E000E2D39B01AC0160E074E284EF9CE4ACD20B
:1000F00020E030E040E05FE33BD218D3E0E0F8E0FE
:10010000608771878681806C86830895E0E0F8E0DF
:10011000948195FFFDCF809302080895EF92FF929E
:100120000F931F93CF93DF938C017C01C0E0D0E04D
:10013000F80101900020E9F73197E01BF10BCE1791
:10014000DF0730F4F70181917F01E0DF2196F0CFE6
:10015000DF91CF911F910F91FF90EF9008950F9332
:100160001F93CF93DF936115710549F08C01EC016A
:10017000060F171F8991CADFC017D107D9F7DF9182
:10018000CF911F910F910895E0E0F8E084818823DA
:100190002CF08091453F8823C9F303C0809100086B
:1001A00008958FEF0895EF92FF921F93CF93DF93FF
:1001B000EC01E62EE9DF8A30D1F08F3FC1F0F12C5F
:1001C00091E0E91AF1081E141F048CF410E007C036
:1001D0008F3F69F0212F30E02E153F0544F4219622
:1001E000FE01319780831F5FCFDF8A3089F7188245
:1001F000DF91CF911F91FF90EF900895E0E4F1E03F
:1002000091819111FDCF20E030E0382F330F330F73
:10021000E0E4F1E02287338781E0828391E89083F4
:100220008783089588ED90E084BF9093600023E178
:1002300030E084BF20936100E0E0F4E080818B7FB8
:1002400080838081877F808389E0828B838B80811C
:100250008260808384818D7F84838091103F909120
:10026000113FCCDF25DF02DF80E091EE2BDF089528
:100270001F920F920FB60F9211248F9381E08093FB
:10028000453F8FEF809309048F910F900FBE0F9021
:100290001F9018951F920F920FB60F9211248F93F3
:1002A00081E0809343018F910F900FBE0F901F90BC
:1002B00018950F931F93CF93DF936AE082E19FE33A
:1002C00072DF8091123F823059F1833009F458C0B7
:1002D000813009F07EC0CADEE0E0FFE381839283D3
:1002E0009F938F9388E29FE89F938F9383E09FE390
:1002F0009F938F9345D38AE0E0E0FFE3A2E1BFE361
:1003000001900D928A95E1F76AE070E082E19FE347
:1003100026DF0F900F900F900F900F900F9063C0FB
:1003200081E49FE8FBDECAE0DFE302E11FE388E04F
:10033000F801DE0101900D928A95E1F788E0FE0157
:10034000D80101900D928A95E1F768E070E0C8014C
:1003500006DF8D818F938C818F938B818F938A8120
:100360008F938DE29FE89F938F931F930F9308D3F2
:10037000C801D4DE8DB79EB708968DBF9EBF33C02F
:100380008DE39FE8CBDE02E11FE3CAE0DFE388E014
:10039000FE01D80101900D928A95E1F768E070E0C6
:1003A000C801DDDE8D818F938C818F938B818F933C
:1003B0008A818F938DE29FE89F938F931F930F9372
:1003C000DFD2C801ABDE8DB79EB708968DBF9EBF4A
:1003D0000AC0E2E1FFE38FEF80831182CF019EDE4E
:1003E00089E49FE89BDEDF91CF911F910F910895E3
:1003F00019DF82E59FE892DEE12C6894FF24F2F891
:100400000F2EFBE58F2EFFE89F2EF02D0F2EF2E131
:10041000CF2EFFE3DF2EF02D0F2EFAE0AF2EFFE3FD
:10042000BF2EF02DC0E5D0E0F89483ED90E3019766
:10043000F1F700C00000F701808580958C708093F3
:10044000443F14DE8C01F70190858091443F1F9357
:100450000F931F929F931F928F939F928F92DF9281
:10046000CF928ED2C6015ADE1092453F789478948E
:100470008091443F2DB73EB7265F3F4F2DBF3EBF13
:10048000883020F088E79FE849DE13DF8091443F01
:10049000843099F585E89FE841DEF501818180FF90
:1004A00018C0848195810817190738F482E99FE8FC
:1004B00035DEF70184818D7F84838881897F826026
:1004C0008883888181608883889588818E7F8883EE
:1004D00014C082EB9FE822DE83EC99E00197F1F7EC
:1004E00000C000008881897F846088838881816062
:1004F0008883889588818E7F88838091443F81118D
:1005000093CF83EC9FE80ADEE3ECF9E03197F1F753
:1005100000C00000F501828193810817190788F057
:100520008EEC9FE8FBDD83EC99E00197F1F700C0CA
:100530000000F7018481826084839481892384830D
:100540000AC0F501848195810817190720F4F70185
:1005500084818D7F84838881897F8260888388817C
:1005600081608883889588818E7F88835DCF50588D
:10057000BB27AA270E94CF020C9419040E940B04E7
:1005800038F00E94120420F039F49F3F19F426F449
:100590000C9408040EF4E095E7FB0C940204E92F98
:1005A0000E942A0458F3BA17620773078407950755
:1005B00020F079F4A6F50C944C040EF4E0950B2E83
:1005C000BA2FA02D0B01B90190010C01CA01A001A5
:1005D0001124FF27591B99F0593F50F4503E68F100
:1005E0001A16F040A22F232F342F4427585FF3CF41
:1005F000469537952795A795F0405395C9F77EF412
:100600001F16BA0B620B730B840BBAF09150A1F05A
:10061000FF0FBB1F661F771F881FC2F70EC0BA0FE0
:10062000621F731F841F48F4879577956795B79568
:10063000F7959E3F08F0B0CF9395880F08F0992763
:10064000EE0F9795879508950E9438030C9419042E
:100650000E94120458F00E940B0440F029F45F3FFE
:1006600029F00C94020451110C944D040C940804CC
:100670000E942A0468F39923B1F3552391F3951B43
:10068000550BBB27AA2762177307840738F09F5FB3
:100690005F4F220F331F441FAA1FA9F335D00E2E20
:1006A0003AF0E0E832D091505040E695001CCAF78D
:1006B0002BD0FE2F29D0660F771F881FBB1F261750
:1006C00037074807AB07B0E809F0BB0B802DBF0127
:1006D000FF2793585F4F3AF09E3F510578F00C94F6
:1006E00002040C944D045F3FE4F3983ED4F38695E6
:1006F00077956795B795F7959F5FC9F7880F911D17
:100700009695879597F90895E1E0660F771F881F02
:10071000BB1F621773078407BA0720F0621B730BB5
:10072000840BBA0BEE1F88F7E09508950E943204FF
:1007300088F09F5798F0B92F9927B751B0F0E1F0A2
:10074000660F771F881F991F1AF0BA95C9F714C052
:10075000B13091F00E944C04B1E008950C944C0427
:10076000672F782F8827B85F39F0B93FCCF386958B
:1007700077956795B395D9F73EF4909580957095E8
:1007800061957F4F8F4F9F4F0895E89409C097FB65
:100790003EF490958095709561957F4F8F4F9F4F58
:1007A0009923A9F0F92F96E9BB279395F69587959C
:1007B00077956795B795F111F8CFFAF4BB0F11F45F
:1007C00060FF1BC06F5F7F4F8F4F9F4F16C0882306
:1007D00011F096E911C0772321F09EE8872F762F3C
:1007E00005C0662371F096E8862F70E060E02AF07D
:1007F0009A95660F771F881FDAF7880F9695879569
:1008000097F9089597F99F6780E870E060E0089590
:100810009FEF80EC089500240A9416161706180618
:100820000906089500240A941216130614060506F4
:100830000895092E0394000C11F4882352F0BB0F85
:1008400040F4BF2B11F460FF04C06F5F7F4F8F4FE8
:100850009F4F089557FD9058440F551F59F05F3F23
:1008600071F04795880F97FB991F61F09F3F79F0D2
:1008700087950895121613061406551FF2CF469554
:10088000F1DF08C0161617061806991FF1CF8695D6
:100890007105610508940895E894BB2766277727BA
:1008A000CB0197F908950E9466040C9419040E94E4
:1008B0000B0438F00E94120420F0952311F00C94E0
:1008C00002040C94080411240C944D040E942A0480
:1008D00070F3959FC1F3950F50E0551F629FF00193
:1008E000729FBB27F00DB11D639FAA27F00DB11DAC
:1008F000AA1F649F6627B00DA11D661F829F222735
:10090000B00DA11D621F739FB00DA11D621F839FBB
:10091000A00D611D221F749F3327A00D611D231F91
:10092000849F600D211D822F762F6A2F11249F57DF
:1009300050409AF0F1F088234AF0EE0FFF1FBB1FE2
:10094000661F771F881F91505040A9F79E3F5105A1
:1009500080F00C9402040C944D045F3FE4F3983E45
:10096000D4F3869577956795B795F795E7959F5F4B
:10097000C1F7FE2B880F911D9695879597F90895DD
:10098000AEE0B0E0E5ECF4E0AAC20D891E8986E095
:100990008C8309831A838FEF9FE78D839E83AE013B
:1009A000475E5F4F6F89788DCE01019608D0EF8149
:1009B000F885E00FF11F10822E96E4E0A9C2ABE0AB
:1009C000B0E0E4EEF4E07DC26C017B018A01FC0141
:1009D00016821782838181FFBFC1CE0101963C013F
:1009E000F6019381F70193FD859193FF81917F013A
:1009F000882309F4ADC1853239F493FD859193FFC5
:100A000081917F01853221F4B60190E0C0D1E8CF19
:100A1000912C212C312CFFE1F315D8F08B3279F099
:100A200038F4803279F08332A1F4232D20611DC087
:100A30008D3261F0803369F4232D216016C0832D3F
:100A40008260382EE32DE4603E2E2AC0F32DF8603C
:100A50001DC037FC2DC020ED280F2A3040F08E320B
:100A6000B9F436FC75C1232D2064322E19C036FE30
:100A700006C08AE0989E200D1124922E11C0EAE053
:100A80002E9E200D1124222EF32DF0623F2E08C041
:100A90008C3621F4832D8068382E02C0883641F4CC
:100AA000F70193FD859193FF81917F018111B3CF70
:100AB000982F9F7D9554933028F40C5F1F4F9FE330
:100AC00099830DC0833631F0833771F0833509F097
:100AD00055C020C0F801808189830E5F1F4F882494
:100AE0008394912C530112C02801F2E04F0E511C47
:100AF000F801A080B18036FE03C0692D70E002C00D
:100B00006FEF7FEFC50138D14C018201F32DFF77E4
:100B10003F2E15C0280122E0420E511CF801A08092
:100B2000B18036FE03C0692D70E002C06FEF7FEF29
:100B3000C50117D14C01F32DF0683F2E820133FC23
:100B400019C0822D90E088169906A0F4B60180E2C3
:100B500090E01DD12A94F5CFF50137FC859137FE41
:100B600081915F01B60190E012D121102A9421E019
:100B7000821A91088114910479F7E1C0843611F04A
:100B8000893639F5F80137FE07C0608171818281AD
:100B900093810C5F1F4F08C060817181072E000C8C
:100BA000880B990B0E5F1F4FF32DFF763F2E97FF9B
:100BB00009C090958095709561957F4F8F4F9F4F9D
:100BC000F0683F2E2AE030E0A3011DD1882E861860
:100BD00044C0853731F4232D2F7EB22E2AE030E039
:100BE00025C0932D997FB92E8F36C1F018F4883522
:100BF00079F0AEC0803719F0883721F0A9C0E92F0D
:100C0000E061BE2EB4FE0DC0FB2DF460BF2E09C006
:100C100034FE0AC0292F2660B22E06C028E030E03C
:100C200005C020E130E002C020E132E0F801B7FE6B
:100C300007C060817181828193810C5F1F4F06C064
:100C40006081718180E090E00E5F1F4FA301DBD0D7
:100C5000882E8618FB2DFF773F2E36FE0DC0232DE4
:100C60002E7FA22E891458F434FE0BC032FC09C02A
:100C7000832D8E7EA82E05C0B82CA32C03C0B82CC3
:100C800001C0B92CA4FE0FC0FE01E80DF11D80814A
:100C9000803321F49A2D997EA92E09C0A2FE06C0A8
:100CA000B394B39404C08A2D867809F0B394A3FC5E
:100CB00010C0A0FE06C0B21480F4280C922C9B1821
:100CC0000DC0B21458F4B60180E290E060D0B39445
:100CD000F8CFB21418F42B1802C0982C212CA4FEC3
:100CE0000FC0B60180E390E052D0A2FE16C0A1FC76
:100CF00003C088E790E002C088E590E0B6010CC030
:100D00008A2D867851F0A1FE02C08BE201C080E2FC
:100D1000A7FC8DE2B60190E03AD0891430F4B60118
:100D200080E390E034D09A94F8CF8A94F301E80DF0
:100D3000F11D8081B60190E02AD08110F6CF2220EB
:100D400009F44ECEB60180E290E021D02A94F7CF8C
:100D5000F6018681978102C08FEF9FEF2B96E2E12B
:100D6000C9C0FC010590615070400110D8F7809512
:100D700090958E0F9F1F0895FC0161507040019067
:100D80000110D8F7809590958E0F9F1F08950F93AF
:100D90001F93CF93DF93FB01238121FD03C08FEFCE
:100DA0009FEF2CC022FF16C04681578124813581D8
:100DB0004217530744F4A081B1819D012F5F3F4F3B
:100DC000208331838C93268137812F5F3F4F268389
:100DD000378314C08B01EC01FB010084F185E02D09
:100DE0000995892BE1F6D80116968D919C9117975C
:100DF000019616968D939C931797CE01DF91CF9114
:100E00001F910F910895FA01AA27283051F120313E
:100E100081F1E8946F936E7F6E5F7F4F8F4F9F4F8E
:100E2000AF4FB1E03ED0B4E03CD0670F781F891FD0
:100E30009A1FA11D680F791F8A1F911DA11D6A0F9E
:100E4000711D811D911DA11D20D009F468943F9151
:100E50002AE0269F11243019305D3193DEF6CF0150
:100E60000895462F4770405D4193B3E00FD0C9F716
:100E7000F6CF462F4F70405D4A3318F0495D31FD83
:100E80004052419302D0A9F7EACFB4E0A6959795D6
:100E9000879577956795BA95C9F7009761057105AC
:100EA00008959B01AC010A2E0694579547953795F6
:100EB0002795BA95C9F7620F731F841F951FA01D50
:100EC00008952F923F924F925F926F927F928F92EE
:100ED0009F92AF92BF92CF92DF92EF92FF920F93C9
:100EE0001F93CF93DF93CDB7DEB7CA1BDB0BCDBF0C
:100EF000DEBF09942A88398848885F846E847D849F
:100F00008C849B84AA84B984C884DF80EE80FD80B1
:100F10000C811B81AA81B981CE0FD11DCDBFDEBF4F
:080F2000ED010895F894FFCFE4
:100F280025646D5600485F483A25642C20485F4C7C
:100F38003A25640A0047455420434F4E4649470A1C
:100F480000554E4B4E4F574E0A000A0A5354415211
:100F5800540A000A4D6F64653A2025642C20504FCE
:100F680052544120256420566F6C743A25640A0057
:100F78004D6F64653A20415741494B0A004D6F64F3
:100F8800653A20534C4545500A004445414B544965
:100F98005641544520424F415244202D204C4F5732
:100FA80020564F4C544147450A00474F544F204460
:100FB80045455020534C4545500A004D6F64653AED
:100FC800204F46460A00414B544956415445204259
:060FD8004F4152440A00E3
:100FDE00010000000000000000000201A00FC40983
:020FEE001E00E3
:00000001FF
