:1000000019C033C032C031C030C02FC02EC02DC087
:100010002CC02BC02AC029C028C027C026C025C09C
:1000200024C023C022C021C020C01FC01EC01DC0CC
:100030001CC01BC011241FBECFEFCDBFDFE3DEBF4E
:100040001FE3A0E0BFE3EEEDF4E002C005900D92E7
:10005000A830B107D9F72FE3A8E0BFE301C01D9294
:10006000A830B207E1F75CD038C2CACFE0E0F6E0D2
:1000700083E0808380858160808783858823E9F39E
:10008000E0E0F6E06089718981E0838780E090E0BC
:1000900029D19B01AC016DEC7CEC8CE894E481D01F
:1000A00020E030E04AE754E4ABD1EDD0CB01089535
:1000B00080E18093A000E0E0F6E08DE1868381E1BD
:1000C00082830895E0E4F1E091819111FDCF20E079
:1000D00030E0382F330F330FE0E4F1E0228733872D
:1000E00081E0828391E890838783089588ED90E092
:1000F00084BF9093600023E130E084BF20936100CF
:10010000E0E0F4E080818260808386E08483E0E048
:10011000FFE3118286819781D5DFCADFA7DF0895CB
:10012000E5DFC0E0DFE300E014E00F2EF0E7EF2EA4
:10013000F02D0F2EF6E0FF2EF02DDD24D39496DF68
:100140002981211117C02A813B818217930778F0FA
:10015000D982F801E482FFE724E88EE1F1502040E3
:100160008040E1F700C00000F801F482E8CFF80118
:10017000F482E5CF2C813D812817390720F01982C0
:10018000F801F482DCCFF801E482FFE724E88EE195
:10019000F15020408040E1F700C00000F801F482F7
:1001A000CECF0E94E5000C94C6010E94BF0158F01A
:1001B0000E94B80140F029F45F3F29F00C94AF0190
:1001C00051110C94FA010C94B5010E94D70168F307
:1001D0009923B1F3552391F3951B550BBB27AA2700
:1001E00062177307840738F09F5F5F4F220F331F3A
:1001F000441FAA1FA9F335D00E2E3AF0E0E832D002
:1002000091505040E695001CCAF72BD0FE2F29D004
:10021000660F771F881FBB1F261737074807AB07D6
:10022000B0E809F0BB0B802DBF01FF2793585F4F4B
:100230003AF09E3F510578F00C94AF010C94FA010E
:100240005F3FE4F3983ED4F3869577956795B7952D
:10025000F7959F5FC9F7880F911D9695879597F938
:100260000895E1E0660F771F881FBB1F62177307B1
:100270008407BA0720F0621B730B840BBA0BEE1FC6
:1002800088F7E09508950E94DF0188F09F5798F065
:10029000B92F9927B751B0F0E1F0660F771F881F8B
:1002A000991F1AF0BA95C9F714C0B13091F00E94A5
:1002B000F901B1E008950C94F901672F782F882790
:1002C000B85F39F0B93FCCF3869577956795B395CC
:1002D000D9F73EF490958095709561957F4F8F4F3B
:1002E0009F4F0895E89409C097FB3EF49095809540
:1002F000709561957F4F8F4F9F4F9923A9F0F92FEC
:1003000096E9BB279395F695879577956795B79569
:10031000F111F8CFFAF4BB0F11F460FF1BC06F5F4F
:100320007F4F8F4F9F4F16C0882311F096E911C061
:10033000772321F09EE8872F762F05C0662371F082
:1003400096E8862F70E060E02AF09A95660F771F96
:10035000881FDAF7880F9695879597F9089597F98A
:100360009F6780E870E060E008959FEF80EC08955B
:1003700000240A9416161706180609060895002484
:100380000A9412161306140605060895092E0394FE
:10039000000C11F4882352F0BB0F40F4BF2B11F472
:1003A00060FF04C06F5F7F4F8F4F9F4F089557FDD1
:1003B0009058440F551F59F05F3F71F04795880FD3
:1003C00097FB991F61F09F3F79F08795089512166A
:1003D00013061406551FF2CF4695F1DF08C0161616
:1003E00017061806991FF1CF8695710561050894C7
:1003F0000895E894BB2766277727CB0197F90895DE
:100400000E9413020C94C6010E94B80138F00E94A9
:10041000BF0120F0952311F00C94AF010C94B501AD
:1004200011240C94FA010E94D70170F3959FC1F337
:10043000950F50E0551F629FF001729FBB27F00D92
:10044000B11D639FAA27F00DB11DAA1F649F6627E7
:10045000B00DA11D661F829F2227B00DA11D621F36
:10046000739FB00DA11D621F839FA00D611D221FF0
:10047000749F3327A00D611D231F849F600D211DD4
:10048000822F762F6A2F11249F5750409AF0F1F057
:1004900088234AF0EE0FFF1FBB1F661F771F881FC0
:1004A00091505040A9F79E3F510580F00C94AF0148
:1004B0000C94FA015F3FE4F3983ED4F38695779568
:1004C0006795B795F795E7959F5FC1F7FE2B880F66
:0E04D000911D9695879597F90895F894FFCFA2
:0804DE000200AC0DB80B1E007A
:00000001FF
