S01A0000506F77657253757065727669736F723430322E7372656325
S113000019C020C01FC01EC01DC01CC048C01AC0DB
S113001019C018C017C016C015C014C013C012C030
S113002011C010C00FC00EC00DC00CC00BC00AC060
S113003009C008C011241FBECFEFCDBFDFE3DEBF70
S11300406BD020C2DDCFE0E0F6E083E080838085E2
S11300508160808783858823E9F3E0E0F6E06089A6
S1130060718981E0838780E090E011D19B01AC012C
S11300706DEC7CEC8CE894E469D020E030E04AE755
S113008054E493D1D5D0CB01089580E18093A000AE
S1130090E0E0F6E08DE1868381E1828308951F929A
S11300A00F920FB60F9211248F9381E08093430136
S11300B08F910F900FBE0F901F901895E0E4F1E020
S11300C091819111FDCF20E030E0382F330F330FB1
S11300D0E0E4F1E02287338781E0828391E8908332
S11300E08783089588ED90E084BF9093600023E1B6
S11300F030E084BF209361008EE190E0DFDFE0E533
S1130100F0E08081897F8260808380818160808348
S11301107894BBDF98DF0895E5DFE0E0F4E08FEF4B
S113012080831482C0E0D4E01FEF8DDF893B9B40C5
S113013058F01C838FE794E82EE1815090402040D2
S1130140E1F700C000001C828895EFCF0E94BA003E
S11301500C949B010E94940158F00E948D0140F080
S113016029F45F3F29F00C94840151110C94CF01C0
S11301700C948A010E94AC0168F39923B1F35523CE
S113018091F3951B550BBB27AA27621773078407A6
S113019038F09F5F5F4F220F331F441FAA1FA9F33C
S11301A035D00E2E3AF0E0E832D091505040E6952A
S11301B0001CCAF72BD0FE2F29D0660F771F881F8B
S11301C0BB1F261737074807AB07B0E809F0BB0B7E
S11301D0802DBF01FF2793585F4F3AF09E3F510592
S11301E078F00C9484010C94CF015F3FE4F3983EC3
S11301F0D4F3869577956795B795F7959F5FC9F77B
S1130200880F911D9695879597F90895E1E0660FFB
S1130210771F881FBB1F621773078407BA0720F074
S1130220621B730B840BBA0BEE1F88F7E0950895DD
S11302300E94B40188F09F5798F0B92F9927B751BD
S1130240B0F0E1F0660F771F881F991F1AF0BA9576
S1130250C9F714C0B13091F00E94CE01B1E0089505
S11302600C94CE01672F782F8827B85F39F0B93FF7
S1130270CCF3869577956795B395D9F73EF4909529
S11302808095709561957F4F8F4F9F4F0895E894A7
S113029009C097FB3EF490958095709561957F4FCA
S11302A08F4F9F4F9923A9F0F92F96E9BB27939578
S11302B0F695879577956795B795F111F8CFFAF488
S11302C0BB0F11F460FF1BC06F5F7F4F8F4F9F4FB9
S11302D016C0882311F096E911C0772321F09EE817
S11302E0872F762F05C0662371F096E8862F70E07D
S11302F060E02AF09A95660F771F881FDAF7880F57
S11303009695879597F9089597F99F6780E870E027
S113031060E008959FEF80EC089500240A94161677
S1130320170618060906089500240A9412161306DF
S1130330140605060895092E0394000C11F488236D
S113034052F0BB0F40F4BF2B11F460FF04C06F5F89
S11303507F4F8F4F9F4F089557FD9058440F551F5F
S113036059F05F3F71F04795880F97FB991F61F033
S11303709F3F79F087950895121613061406551FAA
S1130380F2CF4695F1DF08C0161617061806991F16
S1130390F1CF86957105610508940895E894BB270B
S11303A066277727CB0197F908950E94E8010C94FA
S11303B09B010E948D0138F00E94940120F0952346
S11303C011F00C9484010C948A0111240C94CF0133
S11303D00E94AC0170F3959FC1F3950F50E0551F37
S11303E0629FF001729FBB27F00DB11D639FAA2786
S11303F0F00DB11DAA1F649F6627B00DA11D661FD5
S1130400829F2227B00DA11D621F739FB00DA11DF5
S1130410621F839FA00D611D221F749F3327A00DAF
S1130420611D231F849F600D211D822F762F6A2F4B
S113043011249F5750409AF0F1F088234AF0EE0FB0
S1130440FF1FBB1F661F771F881F91505040A9F7DD
S11304509E3F510580F00C9484010C94CF015F3FC2
S1130460E4F3983ED4F3869577956795B795F79519
S1130470E7959F5FC1F7FE2B880F911D9695879591
S10B048097F90895F894FFCFE9
S9030000FC
